:02000000C8290D
:10000600103083120313FD00FD0B072800000800C3
:0400160000000800DE
:10001A00083083120313FC002330FD00FD0B132864
:06002A00FC0B1328080086
:1000300083120313F801F9011030FC00710DF80D63
:10004000F90D7408F8027508031C750FF9020318FE
:1000500030287408F80775080318750FF90703109E
:0A006000F00DF10DFC0B1E28080046
:10006A0083120313BA1B3B2888113C2888153A1BB4
:10007A004028081141280815BA1A45288810462828
:10008A0088143A1A4A2808104B28081420184F28AE
:10009A0008165028081208170B200813BA195728EF
:1000AA008811582888153A195C2808115D280815FE
:1000BA00BA1861288810622888143A186628081025
:1000CA006728081420186B2808166C2808120817C5
:1000DA000B200813201C73280D2074280320080005
:1000EA0083120313B801053038020318832838082D
:1000FA003707840020308000B80A78283808370784
:10010A0084008001B80338083707B9000A30F400C0
:10011A00F5013508F0003608F10018207808F000DB
:10012A007908F1003030F00739088400700880003F
:10013A000A30F400F5013508F0003608F1001820FD
:10014A007008B5007108B60000307106031DAF28AB
:10015A0000307006031DB228B428B80388280800A6
:10016A008312031320103508BA0035202014080022
:0E017A008312031322088A0021088200080065
:10018800D628803083120313AC00E928C030AC00B5
:10019800E9289430AC00E928D430AC00E928803054
:1001A800AC00E928831203132C08013A0319C52867
:1001B8002C08023A0319CA282C08033A0319CD2837
:1001C8002C08043A0319D028D3282D03F0002C0852
:1001D800F0077008AC007008BA0035202010AF0195
:1001E8002F082E0784000008031902292F082E075C
:1001F80084000008B500B520AF0AF42820140800D0
:10020800BD208A110A128000840AA10A0319A20AD1
:08021800F003031D0429080096
:1002200083120313B101B2012C08B3002D08B400EE
:1002300080302D06F00080307002031D212900302F
:100240002C0203182F290130B1000030B2002C0815
:10025000003CB3002D08031C013EB401B402330876
:10026000B5003408B6002E08B70075200630AF0080
:100270000030B0003008003C031D40292F08003C2E
:1002800003185B292F082E07F20001302F02F0001F
:100290000030031C013E3002F10070082E0784007C
:1002A0000008F00072088400700880000130AF027E
:1002B000031CB0033A292E08840020308000310846
:1002C000320403197929AF01B0012F082E078400E9
:1002D0000008203A031D7029AF0A0319B00A6529E6
:1002E0000130AF02031CB0032F082E0784002D300D
:0402F0008000080082
:1002F40083160313081308120810881008118811B4
:1003040083120813081288110811881008100D2090
:100314000D200D208814081408170B2008130D2035
:1003240008170B2008130D2008170B2008130D20A5
:10033400081008170B2008130D2008170B200813AA
:100344008810881508170B2008130D20881108142D
:1003540008170B200813081008170B2008130D208A
:1003640008170B200813081408170B2008130D2076
:10037400081008170B20081388150815881408148A
:0C03840008170B2008130D20201408009F
:1003900083120313AA01AB018B01C73083168100BE
:1003A00007309F008113861483128614831605126A
:1003B000831205167A210130BA0035200C30BA00BC
:1003C00035202A08AC002B08AD002330AE001021E8
:1003D0000130AC000130AD002330AE00C420063047
:1003E000FB001330FC00AD30FD00FD0BF529FC0BCC
:1003F000F529FB0BF52900000000AA0A0319AB0A36
:1004000000302B06031D062A0A302A06031D0A2A7D
:08041000AA01AB01E1290B2A4E
:02400E004A2F37
:00000001FF
