:020000001229C3
:10000600103083120313FD00FD0B072800000800C3
:0400160000000800DE
:10001A00083083120313FC002330FD00FD0B132864
:06002A00FC0B1328080086
:1000300083120313B51B1E2888111F288815351B32
:100040002328081124280815B51A282888102928DB
:100050008814351A2D2808102E2808142C18322838
:1000600008163328081208170B200813B5193A2868
:1000700088113B28881535193F2808114028081594
:10008000B5184428881045288814351849280810C0
:100090004A2808142C184E2808164F28081208174A
:1000A0000B2008132C1C56280D205728032008006D
:0E00B000831203132F088A002E088200080016
:1000BE00831203132C103408B50018202C140800DA
:1000CE007928803083120313B0008C28C030B00022
:1000DE008C289430B0008C28D430B0008C2880301E
:1000EE00B0008C28831203133008013A03196828D4
:1000FE003008023A03196D283008033A03197028A4
:10010E003008043A0319732876283103F0003008BA
:10011E00F0077008B0007008B50018202C10B3015D
:10012E0033083207840000080319A5283308320764
:10013E0084000008B4005F20B30A97282C1408002E
:10014E00831603130813081208108810081188115B
:10015E0083120813081288110811881008100D2038
:10016E000D200D208814081408170B2008130D20DD
:10017E0008170B2008130D2008170B2008130D204D
:10018E00081008170B2008130D2008170B20081352
:10019E008810881508170B2008130D2088110814D5
:1001AE0008170B200813081008170B2008130D2032
:1001BE0008170B200813081408170B2008130D201E
:1001CE00081008170B200813881508158814081432
:0C01DE0008170B2008130D202C1408003B
:1001EA00033083120313FB008A30FC005530FD00F4
:1001FA00FD0BFD28FC0BFD28FB0BFD280000000071
:02020A000800EA
:10020C0058208A110A128000840AAE0A0319AF0A18
:08021C00F003031D0629080090
:10022400653083120313A0007530A1007430A2005E
:100234006530A3006530A4006E30A5007430A600BC
:100244006530A7006E30A8006430A9006F30AA00A2
:10025400AB018B01073083169F0081138801831241
:100264008812A7200130B50018200C30B5001820E2
:100274000130B0000130B1002030B20067200B30F3
:10028400FB002630FC005D30FD00FD0B4729FC0B14
:100294004729FB0B4729000000000130B500182056
:1002A4000B30FB002630FC005D30FD00FD0B5829AF
:1002B400FC0B5829FB0B582900000000AD01043049
:1002C4002D0203186B291C30B5001820F520AD0A47
:1002D4006129AD0108302D02031876291830B500C4
:1002E4001820F520AD0A6C29AD0108302D02031841
:1002F40081291C30B5001820F520AD0A77296B2917
:0203040082294C
:02400E004A2F37
:00000001FF
